:020000040800F2
:1000000000500020F11B00088D0500088F05000836
:100010009105000893050008950500080000000000
:10002000000000000000000000000000970500082C
:1000300099050008000000009B0500089D050008C8
:10004000391C0008391C0008391C0008391C00083C
:10005000391C0008391C0008391C0008391C00082C
:10006000391C0008391C0008391C0008391C00081C
:10007000391C0008391C0008391C0008A5050008B7
:10008000391C0008391C0008391C0008391C0008FC
:10009000391C0008391C0008391C0008391C0008EC
:1000A000391C0008391C0008391C0008391C0008DC
:1000B000391C0008391C0008391C0008391C0008CC
:1000C000391C0008391C0008391C0008391C0008BC
:1000D000391C0008B5050008391C0008391C000847
:1000E000391C0008391C0008391C000800000000F9
:1000F0000000000000000000000000000000000000
:0C01000000000000000000005FF808F1A3
:10010C0010B5054C237833B9044B13B10448AFF345
:10011C0000800123237010BD0C00002000000000A3
:10012C00941C000808B5034B1BB103490348AFF3FB
:10013C00008008BD0000000010000020941C000886
:10014C0072B6FEE700B591B02822002106A801F096
:10015C0093FD0023019302930393049305930122CF
:10016C0006924FF4803307930A9202220D920E935B
:10017C004FF4E0130F9306A800F0A6FC80B90F23F0
:10018C00019302210291002303934FF480620492A5
:10019C00059301A800F0CAFE20B911B05DF804FB6C
:1001AC00FFF7CEFFFFF7CCFF10B500F03FFCFFF7D9
:1001BC00C9FF00F033F800F09FF800F063F900F08D
:1001CC00F3F8154C00222021204601F09DF8002266
:1001DC001021204601F098F800220121204601F060
:1001EC0093F800220221204601F08EF8002204210F
:1001FC00204601F089F80DE00821074801F08AF843
:10020C00012000F037FC0134C72CF5DD4FF4FA6007
:10021C0000F030FC0024F7E7000801402DE9F04322
:10022C0089B0002404940594069407942E4B9A6983
:10023C0042F010029A619A6902F010020092009A40
:10024C009A6942F020029A619A6902F020020192A6
:10025C00019A9A6942F004029A619A6902F00402C6
:10026C000292029A9A6942F008029A619B6903F021
:10027C0008030393039BDFF8749022464FF460410C
:10028C00484601F041F8DFF868802246FF214046DD
:10029C0001F03AF8174F224640F20341384601F07C
:1002AC0033F84FF460430493012605960694022517
:1002BC00079504A9484600F015FFFF230493059603
:1002CC000694079504A9404600F00CFF40F2034346
:1002DC00049305960694079504A9384600F002FF8E
:1002EC0009B0BDE8F08300BF0010024000100140CF
:1002FC0000080140000C014000B583B00A4B5A695C
:10030C0042F001025A615B6903F001030193019B06
:10031C00002211460F2001F061F90F2001F096F92F
:10032C0003B05DF804FB00BF001002400268094BEB
:10033C009A4200D0704782B003F564439A6942F444
:10034C0000629A619B6903F400630193019B02B004
:10035C00704700BF002C014000B587B0002302930A
:10036C0003930493059302680D4B9A4202D007B095
:10037C005DF804FB03F564439A6942F004029A6148
:10038C009B6903F004030193019B4FF4E063029318
:10039C0002230393059302A9024800F0A3FEE6E7AB
:1003AC00002C01400008014010B592B000241094BC
:1003BC00119409940A940B940C940D940E940F942C
:1003CC002022214601A801F057FC2C482C4B03603D
:1003DC00446084604FF6FF73C360046144618461C0
:1003EC0000F0D2F9002836D100231093119310A9F4
:1003FC00224800F095FA002830D16023099300229E
:10040C000A920B920C920D920E920F9209A91B4814
:10041C0000F018FA28BB042209A9184800F012FAB7
:10042C0010BB082209A9154800F00CFAF8B90023F2
:10043C00019302930393049305934FF40052069295
:10044C00089301A90D4800F0A1FA98B90B48FFF7E1
:10045C0083FF12B010BDFFF773FEC5E7FFF770FE08
:10046C00CBE7FFF76DFED6E7FFF76AFED9E7FFF79C
:10047C0067FEDCE7FFF764FEE8E700BF280000201A
:10048C00002C014008B50A480A4B03604FF4E133D5
:10049C00436000238360C36003610C22426183616B
:1004AC00C36101F09DF900B908BDFFF749FEFBE7F8
:1004BC00B400002000380140F0B587B0002302934F
:1004CC000393049305930268284B9A4201D007B01A
:1004DC00F0BD044603F558439A6942F480429A6190
:1004EC009A6902F480420092009A9A6942F00802DA
:1004FC009A619B6903F008030193019B40230293CB
:10050C000223039303230593194F02A9384600F0E5
:10051C00E9FD8026029600250395049502A938462C
:10052C0000F0E0FD134A536843F0E06343F004032A
:10053C0053601148114B036045608560C6600561CE
:10054C0045618561C56100F0EFFE58B90A4BE36364
:10055C005C6200221146252001F040F8252001F0B4
:10056C0075F8B4E7FFF7ECFDF0E700BF0038014089
:10057C00000C0140000001407000002058000240B7
:10058C00FEE7FEE7FEE7FEE7FEE7704770477047C1
:10059C0008B500F05DFA08BD08B5024800F06AFF26
:1005AC0008BD00BF7000002008B5024801F0D4F966
:1005BC0008BD00BFB400002082B00E4B9A6942F017
:1005CC0001029A619A6902F001020092009ADA69BA
:1005DC0042F08052DA61DB6903F080530193019B96
:1005EC00054A536823F0E06343F00073536002B094
:1005FC00704700BF001002400000014070B4036A55
:10060C00026A22F0010202624668826922F07302D9
:10061C000C6844EA020523F002028B6813430D4C6C
:10062C00A04209D00B4CA0420DD0466085614A68AF
:10063C004263036270BC704723F00803CA6813431B
:10064C0023F00403EEE726F440764A6932438E69C0
:10065C001643EAE7002C014030B4036A026A22F424
:10066C00807202624568C26922F073020C682243F0
:10067C0023F400738C6843EA04230F4CA04209D086
:10068C000D4CA0420ED04560C2614A68C263036241
:10069C0030BC704723F40063CC6843EA042323F492
:1006AC008063EDE725F440554C6945EA04158C69E7
:1006BC0045EA0415E7E700BF002C014030B4036A9B
:1006CC00026A22F4805202624468C26922F4E64251
:1006DC000D6842EA052223F400538D6843EA053382
:1006EC00074DA84206D04460C2614A6802640362A6
:1006FC0030BC704724F480444D6944EA8514F2E719
:10070C00002C014003681F4A90420AD0B0F1804F80
:10071C0007D0A2F59432904203D002F58062904249
:10072C0003D123F070034A681343164A90420AD04F
:10073C00B0F1804F07D0A2F59432904203D002F56D
:10074C008062904203D123F44073CA68134323F0B0
:10075C0080034A69134303608B68C3620B6883622E
:10076C00084B98420AD001234361036913F0010F2F
:10077C0003D0036923F00103036170470B69036322
:10078C00F1E700BF002C014040B310B5044690F8CF
:10079C003D30F3B1022384F83D30214651F8040B6F
:1007AC00FFF7B0FF012384F8463084F83E3084F81C
:1007BC003F3084F8403084F8413084F8423084F87B
:1007CC00433084F8443084F8453084F83D300020C0
:1007DC0010BD80F83C30FFF7A9FDDBE70120704726
:1007EC0030B4036A026A22F0100202624468826921
:1007FC0022F4E6420D6842EA052223F020038D68BC
:10080C0043EA05130E4DA84209D00D4DA8420ED057
:10081C00446082614A688263036230BC704723F093
:10082C008003CD6843EA051323F04003EDE724F47D
:10083C0040644D6944EA85048D6944EA8504E7E720
:10084C00002C014038B590F83C30012B66D00446A2
:10085C000D46012380F83C300C2A5AD8DFE802F010
:10086C00075959591B59595930595959440000685D
:10087C00FFF7C4FE2268936943F008039361226872
:10088C00936923F0040393612268936929690B43EC
:10089C00936100203EE00068FFF7A2FF2268936995
:1008AC0043F4006393612268936923F4806393613A
:1008BC0022689369296943EA01239361002029E0A6
:1008CC000068FFF7C9FE2268D36943F00803D361BF
:1008DC002268D36923F00403D3612268D3692969A0
:1008EC000B43D361002015E00068FFF7E7FE226898
:1008FC00D36943F40063D3612268D36923F4806322
:10090C00D3612268D369296943EA0123D3610020AA
:10091C0000E00120002384F83C3038BD0220FCE7C5
:10092C0090F83C30012B2CD010B4012380F83C30D3
:10093C00022380F83D3003685A689C6822F0700CE2
:10094C000A6842EA0C025A6003680F4A93420AD0C2
:10095C00B3F1804F07D0A2F59432934203D002F545
:10096C008062934204D124F080044A6814439C6052
:10097C00012380F83D30002380F83C30184610BC31
:10098C0070470220704700BF002C014090F83C30AB
:10099C00012B22D0012380F83C30CB6823F4407328
:1009AC008A68134323F480634A68134323F4006377
:1009BC000A68134323F480530A69134323F4005346
:1009CC004A69134323F48043CA691343026853648E
:1009DC00002380F83C301846704702207047000016
:1009EC0010B504460E4B18784FF47A73B3FBF0F342
:1009FC000C4A1068B0FBF3F000F036FE68B90F2C0F
:100A0C0001D901200AE0002221464FF0FF3000F00E
:100A1C00E5FD054B1C60002000E0012010BD00BF6F
:100A2C0000000020080000200400002008B5074A40
:100A3C00136843F010031360032000F0BDFD0F207A
:100A4C00FFF7CEFFFFF7B8FD002008BD00200240E5
:100A5C00034A1168034B1B780B441360704700BFAB
:100A6C00FC00002000000020014B1868704700BFFC
:100A7C00FC00002038B50446FFF7F6FF0546B4F13C
:100A8C00FF3F02D0044B1B781C44FFF7EDFF401BCB
:100A9C00A042FAD338BD00BF0000002082B0084B42
:100AAC001B68084AA2FB03235B0A00FB03F30193B8
:100ABC0000BF019B5A1E0192002BF9D102B0704766
:100ACC0008000020D34D6210002800F0F18170B5B1
:100ADC0082B00446036813F0010F2CD0994B5B686D
:100AEC0003F00C03042B1DD0964B5B6803F00C0336
:100AFC00082B12D06368B3F5803F41D0002B55D141
:100B0C0003F1804303F504331A6822F480321A602F
:100B1C001A6822F480221A6037E08A4B5B6813F45F
:100B2C00803FE7D0874B1B6813F4003F03D063680A
:100B3C00002B00F0BF81236813F0020F75D0814B9E
:100B4C005B6813F00C0F5FD07E4B5B6803F00C03FB
:100B5C00082B54D02369002B00F08A807A4B012299
:100B6C001A60FFF781FF0546764B1B6813F0020FE6
:100B7C0075D1FFF779FF401B0228F5D903209EE1C0
:100B8C00704A136843F480331360636843B3FFF710
:100B9C006BFF05466B4B1B6813F4003FCBD1FFF783
:100BAC0063FF401B6428F5D9032088E1B3F5A02F1F
:100BBC0009D0644B1A6822F480321A601A6822F445
:100BCC0080221A60E1E703F18043A3F53C331A68F5
:100BDC0042F480221A601A6842F480321A60D4E718
:100BEC00FFF742FF0546574B1B6813F4003FA2D09A
:100BFC00FFF73AFF401B6428F5D903205FE1514B06
:100C0C005B6813F4803FA5D14E4B1B6813F0020FA9
:100C1C0003D02369012B40F04F814A4A136823F01B
:100C2C00F803616943EAC1031360236813F0080FEA
:100C3C0033D0A369002B5CD0434B0122C3F8802432
:100C4C00FFF712FF05463F4B5B6A13F0020F21D1F1
:100C5C00FFF70AFF401B0228F5D903202FE1394A80
:100C6C00136823F0F803616943EAC1031360DCE7FE
:100C7C00354B00221A60FFF7F7FE0546314B1B6817
:100C8C0013F0020FD1D0FFF7EFFE401B0228F5D96D
:100C9C00032014E10120FFF701FF236813F0040F78
:100CAC0000F09680274BDB6913F0805F34D1254B25
:100CBC00DA6942F08052DA61DB6903F08053019308
:100CCC00019B0125214B1B6813F4807F26D0E36820
:100CDC00012B3DD0002B53D103F1804303F504339A
:100CEC001A6A22F001021A621A6A22F004021A62CB
:100CFC0033E0154B0022C3F88024FFF7B5FE054600
:100D0C00104B5B6A13F0020FC7D0FFF7ADFE401B10
:100D1C000228F5D90320D2E00025D3E70B4A13684B
:100D2C0043F480731360FFF79FFE0646074B1B6866
:100D3C0013F4807FCBD1FFF797FE801B6428F5D985
:100D4C000320BCE000100240000042420070004052
:100D5C005F4A136A43F001031362E36833B3FFF78E
:100D6C0083FE06465A4B1B6A13F0020F2FD1FFF776
:100D7C007BFE801B41F288339842F3D903209EE01E
:100D8C00052B09D0524B1A6A22F001021A621A6A18
:100D9C0022F004021A62E0E74D4B1A6A42F0040298
:100DAC001A621A6A42F001021A62D6E7FFF75CFE79
:100DBC000646474B1B6A13F0020F08D0FFF754FE90
:100DCC00801B41F288339842F3D9032077E0E5B9D0
:100DDC00E369002B72D03E4A526802F00C02082ADA
:100DEC0056D0022B17D03B4B00221A66FFF73CFE65
:100DFC000446374B1B6813F0007F47D0FFF734FED7
:100E0C00001B0228F5D9032059E0314AD36923F09D
:100E1C008053D361DCE72F4B00221A66FFF724FEC8
:100E2C0005462B4B1B6813F0007F06D0FFF71CFE0A
:100E3C00401B0228F5D9032041E0236AB3F5803F1B
:100E4C001AD023494B6823F47413226A606A024354
:100E5C0013434B601F4B01221A66FFF705FE044635
:100E6C001B4B1B6813F0007F0ED1FFF7FDFD001B21
:100E7C000228F5D9032022E0154A536823F40033E5
:100E8C00A1680B435360DCE7002018E0002016E05B
:100E9C00012B16D00E4B5B6803F48031226A914211
:100EAC0011D103F47013626A93420ED1002006E054
:100EBC0001207047012002E0012000E0002002B078
:100ECC0070BD0120FBE70120F9E70120F7E700BF27
:100EDC0000100240000042420F4B5B6803F00C0212
:100EEC00082A01D00D487047C3F383420C49885C33
:100EFC0013F4803F0BD0084B5B68C3F34043094AA3
:100F0C00D35C064A02FB00F0B0FBF3F07047064BD3
:100F1C0003FB00F0704700BF0010024000127A0083
:100F2C00AC1C0008BC1C000800093D00002800F0A7
:100F3C00A08070B50D460446524B1B6803F00703A6
:100F4C008B420BD24F4A136823F007030B431360F9
:100F5C00136803F007038B4240F08D80236813F075
:100F6C00020F17D013F0040F04D0474A536843F410
:100F7C00E0635360236813F0080F04D0424A5368AF
:100F8C0043F460535360404A536823F0F003A16864
:100F9C000B435360236813F0010F31D06368012BAE
:100FAC0020D0022B25D0384A126812F0020F64D0E0
:100FBC0035494A6822F0030213434B60FFF754FD96
:100FCC000646314B5B6803F00C036268B3EB820F8F
:100FDC0016D0FFF749FD801B41F288339842F0D9B7
:100FEC00032045E0284A126812F4003FE0D10120AA
:100FFC003EE0254A126812F0007FD9D1012037E07B
:10100C00204B1B6803F00703AB420AD91D4A136837
:10101C0023F007032B431360136803F00703AB4261
:10102C002DD1236813F0040F06D0174A536823F40C
:10103C00E063E1680B435360236813F0080F07D09B
:10104C00114A536823F46053216943EAC103536086
:10105C00FFF742FF0C4B5B68C3F303130B4AD35CE3
:10106C00D8400B4B18600B4B1868FFF7B9FC0020ED
:10107C0070BD012070470120FAE70120F8E701203C
:10108C00F6E700BF0020024000100240C01C000820
:10109C000800002004000020014B1868704700BFB6
:1010AC000800002008B5FFF7F7FF044B5B68C3F39B
:1010BC000223034AD35CD84008BD00BF0010024095
:1010CC00D01C000808B5FFF7E7FF044B5B68C3F3BF
:1010DC00C223034AD35CD84008BD00BF00100240B5
:1010EC00D01C000870B582B00024A446A6E0804D48
:1010FC00AA4210D007D97F4DAA420CD005F58035F5
:10110C00AA4208D013E0A5F58015AA4203D005F534
:10111C007025AA4207D18A68002A58D0012A51D0DA
:10112C004361082403E0A5F58015AA42F3D0BEF173
:10113C00FF0F4ED80646BEF1FF0F4CD84FEA8C027B
:10114C0033680F25954023EA050304FA02F2134392
:10115C0033604B6813F0805F6ED0674B9A6942F036
:10116C0001029A619B6903F001030193019B4FEA11
:10117C009C02951C614B53F825600CF003039D00F9
:10118C000F23AB4026EA03065D4B984229D003F5AA
:10119C008063984200F08E8003F58063984200F0E3
:1011AC008B8003F58063984219D004231AE0CC6835
:1011BC00BDE7CC680434BAE7CC680834B7E7CC6830
:1011CC000C34B4E703610824B1E70024AFE704242E
:1011DC00ADE7061DAFE7ACF108029200B0E70323C0
:1011EC0000E00023AB4033430232444D45F822303B
:1011FC004B6813F4801F61D0424A936843EA0E0394
:10120C0093604B6813F4001F5ED03E4AD36843EAE8
:10121C000E03D3604B6813F4003F5BD0394A53681C
:10122C0043EA0E0353604B6813F4803F58D0354AA1
:10123C00136843EA0E0313600CF1010C0A6832FACE
:10124C000CF353D0012303FA0CF302EA030E33EA36
:10125C000202F1D14A68122A3FF649AF122A3FF630
:10126C0066AF01A555F822F023110008BB11000848
:10127C00C5110008D71100083B1100083B110008EC
:10128C003B1100083B1100083B1100083B11000802
:10129C003B1100083B1100083B1100083B110008F2
:1012AC003B1100083B1100083B110008BF1100085E
:1012BC00CB110008012395E7022393E7114A9368A9
:1012CC0023EA0E0393609CE70E4AD36823EA0E03CD
:1012DC00D3609FE70B4A536823EA0E035360A2E7DF
:1012EC00084A136823EA0E031360A5E702B070BD29
:1012FC0000002210000031100010024000000140DC
:10130C0000080140000401400AB101617047090462
:10131C0001617047C36801EA030221EA030141EA53
:10132C00024101617047000060B310B402460168CD
:10133C00154B0B441548A0FB03031B099B001364BE
:10134C00134BD363022382F82130086820F47F50BA
:10135C0020F03000536894682343D4682343146905
:10136C0023435469234394692343D469234303439C
:10137C000B6000209063012382F8213082F820005A
:10138C0010BC704701207047F8FFFDBFCDCCCCCC12
:10139C000000024090F82130DBB2022B06D004236F
:1013AC008363002380F820300120704702681368A3
:1013BC0023F00E0313600268136823F0010313601B
:1013CC00036CC16B012202FA03F34B6080F82120FD
:1013DC00002380F8203018467047000008B590F8BC
:1013EC002130DBB2022B03D004238363012008BD20
:1013FC000268136823F00E0313600268136823F06D
:10140C00010313600368194A934214D014329342B7
:10141C001FD0143293421ED0143293421ED0143279
:10142C0093421ED01432934202D04FF0807203E0EC
:10143C004FF4801200E001220D4B5A60012380F81A
:10144C002130002380F82030436B6BB1984700208B
:10145C00CDE71022F0E74FF48072EDE74FF48052A5
:10146C00EAE74FF48032E7E70020C0E708000240CB
:10147C000000024038B5C36B1A6804682568016C1B
:10148C0004238B40134235D015F0040F32D023685F
:10149C0013F0200F03D1236823F0040323600368A7
:1014AC00434A934214D01432934218D014329342CC
:1014BC0017D01432934217D01432934217D01432EF
:1014CC00934202D04FF0806203E04FF4800200E0C0
:1014DC000422384B5A60C36A03B1984738BD402286
:1014EC00F7E74FF48062F4E74FF48042F1E74FF4F2
:1014FC008022EEE702238B4013423CD015F0020F02
:10150C0039D0236813F0200F06D1236823F00A0387
:10151C002360012380F821300368254A934214D0BC
:10152C00143293421CD0143293421BD01432934287
:10153C001BD0143293421BD01432934202D04FF082
:10154C00007203E04FF4001200E00222194B5A60C3
:10155C00002380F82030836A002BBFD09847BDE76A
:10156C002022F3E74FF40072F0E74FF40052EDE75E
:10157C004FF40032EAE7082303FA01F11142ADD02F
:10158C0015F0080FAAD0236823F00E032360026C19
:10159C00C16B012303FA02F24A60836380F82130A5
:1015AC00002380F82030036B002B97D0984795E7E9
:1015BC000800024000000240074AD36823F4E063AD
:1015CC001B041B0C000200F4E060034343F0BF63F8
:1015DC0043F40033D360704700ED00E000B5194BC5
:1015EC00DB68C3F30223C3F1070CBCF1040F28BF63
:1015FC004FF0040C03F1040EBEF1060F18D9033B97
:10160C004FF0FF3E0EFA0CFC21EA0C0199400EFA49
:10161C0003F322EA0303194300280BDB0901C9B2C7
:10162C0000F1604000F5614080F800135DF804FBA8
:10163C000023E5E700F00F000901C9B2024B195471
:10164C00F4E700BF00ED00E014ED00E0002807DB3C
:10165C0000F01F02400901239340024A42F8203057
:10166C00704700BF00E100E00138B0F1807F0BD281
:10167C004FF0E0235861054AF02182F82310002036
:10168C00986107221A6170470120704700ED00E055
:10169C00026802F10C0353E8003F23F490730C3200
:1016AC0042E800310029F3D1026802F1140353E837
:1016BC00003F23F00103143242E800310029F3D13A
:1016CC00036B012B05D0202380F8423000230363E9
:1016DC007047026802F10C0353E8003F23F010033B
:1016EC000C3242E800310029F3D1ECE790F841309C
:1016FC00DBB2212B01D0022070478368B3F5805FE9
:10170C0017D0036A5A1C02621A7803685A60C38C99
:10171C009BB2013B9BB2C3844BB90268D36823F0E4
:10172C008003D3600268D36843F04003D360002089
:10173C0070470369002BE4D1036A1B880268C3F36A
:10174C0008035360036A02330362E0E710B50446F2
:10175C000268136923F44053C1680B431361836817
:10176C000269134342691A430168CB6823F4B053EE
:10177C0023F00C031343CB600268536923F44073CA
:10178C0081690B4353610268134B9A4220D0FFF7D7
:10179C0089FC024602EB820202EB820263689B0028
:1017AC00B2FBF3F20D48A0FB02314909642303FBA1
:1017BC0011231B013233A0FB03235B0903F0F0025E
:1017CC0002EB011203F00F03216813448B6010BD70
:1017DC00FFF778FC0246DDE7003801401F85EB512E
:1017EC0060B310B5044690F8413013B3242384F849
:1017FC0041302268D36823F40053D3602046FFF7AE
:10180C00A5FF2268136923F490431361226853697E
:10181C0023F02A0353612268D36843F40053D36046
:10182C0000206064202384F8413084F842306063E7
:10183C0010BD80F84030FEF73FFED7E7012070471F
:10184C00704708B50168CA6822F04002CA602022BD
:10185C0080F84120FFF7F4FF002008BD7047704767
:10186C0008B5406A0023C385C384FFF7F8FF08BDA1
:10187C00704790F84230DBB2222B69D18368B3F504
:10188C00805F4FD0826AB3F5805F04D0002B56D1B5
:10189C000369002B53D103685B681370836A0133AF
:1018AC008362C38D9BB2013B9BB2C385002B51D18C
:1018BC0000B583B00268D36823F02003D3600268BC
:1018CC00D36823F48073D3600268536923F0010357
:1018DC005361202380F8423000234363036B012BB8
:1018EC0033D100230363026802F10C0353E8003F79
:1018FC0023F010030C3242E800310029F3D10368C5
:10190C001A6812F0100F06D0002201921A68019288
:10191C005B680193019B818DFFF7AAFF002003B048
:10192C005DF804FB0269002AACD1826A03685B682B
:10193C00C3F308031380836A02338362B1E703683D
:10194C005B6803F07F031370A8E7FFF787FFE5E7F9
:10195C00022070470020704730B583B004460268FF
:10196C001368D068516913F00F0505D113F0200FDF
:10197C0002D010F0200F19D12DB111F0010119D1A5
:10198C0010F4907F16D1216B01297DD013F0800FBC
:10199C0003D010F0800F40F0188113F0400F03D0EB
:1019AC0010F0400F40F0158103B030BD2046FFF71A
:1019BC0060FFF9E713F0010F06D010F4807F03D01D
:1019CC00626C42F00102626413F0040F04D019B18E
:1019DC00626C42F00202626413F0020F04D019B17F
:1019EC00626C42F00402626413F0080F07D010F02E
:1019FC00200F00D119B1626C42F008026264626C73
:101A0C00002AD1D013F0200F02D010F0200F29D1D2
:101A1C0023685B6903F04003626C12F0080F00D17D
:101A2C0063B32046FFF734FE23685B6913F0400F65
:101A3C0020D0226802F1140353E8003F23F0400346
:101A4C00143242E800310029F3D1E36B73B1634ADD
:101A5C005A63E06BFFF7C2FC0028A5D0E06B436B28
:101A6C009847A1E72046FFF704FFD1E72046FFF790
:101A7C00F6FE99E72046FFF7F2FE95E72046FFF7C2
:101A8C00EEFE002363648FE713F0100F3FF47EAF7C
:101A9C0010F0100F3FF47AAF0023019313680193F9
:101AAC0053680193019B536913F0400F51D0E26BC3
:101ABC0013685B689BB2002B3FF476AFA18D994203
:101ACC007FF672AFE3859369202B37D0226802F141
:101ADC000C0353E8003F23F480730C3242E80031CE
:101AEC000029F3D1226802F1140353E8003F23F0DC
:101AFC000103143242E800310029F3D1226802F1CB
:101B0C00140353E8003F23F04003143242E8003141
:101B1C000029F3D1202384F8423000232363226868
:101B2C0002F10C0353E8003F23F010030C3242E89F
:101B3C0000310029F3D1E06BFFF72CFC0223636327
:101B4C00A18DE38D9BB2C91A89B22046FFF790FE96
:101B5C002AE7A18DE38D9BB2C91A89B2E38D9BB2A2
:101B6C00002B3FF421AF00293FF41EAF226802F195
:101B7C000C0353E8003F23F490730C3242E800301E
:101B8C000028F3D1226802F1140353E8003F23F03C
:101B9C000103143242E800300028F3D1202384F8EA
:101BAC00423000232363226802F10C0353E8003F08
:101BBC0023F010030C3242E800300028F3D102234A
:101BCC0063632046FFF754FEEEE62046FFF78EFDDA
:101BDC00EAE62046FFF735FEE6E600BF6D18000882
:101BEC0070470000FFF7FCFF0B480C490C4A002320
:101BFC0002E0D458C4500433C4188C42F9D3094AB7
:101C0C00094C002301E013600432A242FBD300F024
:101C1C000FF8FEF7C9FA7047000000200C000020F6
:101C2C00E01C00080C00002000010020FEE7000072
:101C3C0070B500260C4D0D4C641BA410A64209D1A6
:101C4C0000F022F800260A4D0A4C641BA410A64290
:101C5C0005D170BD55F8043B98470136EEE755F8B1
:101C6C00043B98470136F2E7D81C0008D81C000842
:101C7C00D81C0008DC1C000803460244934200D127
:101C8C00704703F8011BF9E7F8B500BFF8BC08BCB6
:101C9C009E467047F8B500BFF8BC08BC9E4670471E
:101CAC0002030405060708090A0B0C0D0E0F101091
:101CBC00010200000000000000000000010203040B
:0C1CCC00060708090000000001020304E4
:041CD80031010008CE
:041CDC000D010008EE
:0C1CE000010000001000000000127A005B
:0400000508001BF1E3
:00000001FF
